{
  "_format": "hh-sol-artifact-1",
  "contractName": "Tmkt",
  "sourceName": "contracts/Tmkt.sol",
  "abi": [
    {
      "inputs": [
        {
          "internalType": "uint256",
          "name": "_index",
          "type": "uint256"
        },
        {
          "internalType": "address",
          "name": "_vendorAddress",
          "type": "address"
        }
      ],
      "name": "cancelService",
      "outputs": [],
      "stateMutability": "nonpayable",
      "type": "function"
    },
    {
      "inputs": [
        {
          "internalType": "uint256",
          "name": "_index",
          "type": "uint256"
        },
        {
          "internalType": "address",
          "name": "_vendorAddress",
          "type": "address"
        }
      ],
      "name": "confirmService",
      "outputs": [],
      "stateMutability": "nonpayable",
      "type": "function"
    },
    {
      "inputs": [
        {
          "internalType": "uint256",
          "name": "vendorIndex",
          "type": "uint256"
        },
        {
          "internalType": "address payable",
          "name": "vendor",
          "type": "address"
        }
      ],
      "name": "createTransaction",
      "outputs": [],
      "stateMutability": "payable",
      "type": "function"
    },
    {
      "inputs": [
        {
          "internalType": "string",
          "name": "_businessName",
          "type": "string"
        },
        {
          "internalType": "string",
          "name": "_profession",
          "type": "string"
        },
        {
          "internalType": "string",
          "name": "_filePath",
          "type": "string"
        },
        {
          "internalType": "string",
          "name": "_description",
          "type": "string"
        },
        {
          "internalType": "uint256",
          "name": "_price",
          "type": "uint256"
        }
      ],
      "name": "createVendor",
      "outputs": [],
      "stateMutability": "nonpayable",
      "type": "function"
    },
    {
      "inputs": [],
      "name": "getBal",
      "outputs": [
        {
          "internalType": "uint256",
          "name": "",
          "type": "uint256"
        }
      ],
      "stateMutability": "view",
      "type": "function"
    },
    {
      "inputs": [],
      "name": "getTransactionCount",
      "outputs": [
        {
          "internalType": "uint256",
          "name": "",
          "type": "uint256"
        }
      ],
      "stateMutability": "view",
      "type": "function"
    },
    {
      "inputs": [
        {
          "internalType": "uint256",
          "name": "_index",
          "type": "uint256"
        },
        {
          "internalType": "address",
          "name": "_customerAddress",
          "type": "address"
        }
      ],
      "name": "getTransactions",
      "outputs": [
        {
          "internalType": "uint256",
          "name": "transactionIndex",
          "type": "uint256"
        },
        {
          "internalType": "uint256",
          "name": "vendorIndex",
          "type": "uint256"
        },
        {
          "internalType": "address",
          "name": "vendor",
          "type": "address"
        },
        {
          "internalType": "address",
          "name": "customer",
          "type": "address"
        },
        {
          "internalType": "uint256",
          "name": "amount",
          "type": "uint256"
        },
        {
          "internalType": "enum Tmkt.Status",
          "name": "status",
          "type": "uint8"
        },
        {
          "internalType": "uint256",
          "name": "dateCreated",
          "type": "uint256"
        },
        {
          "internalType": "uint256",
          "name": "dateCompleted",
          "type": "uint256"
        },
        {
          "internalType": "uint256",
          "name": "dateReviewing",
          "type": "uint256"
        },
        {
          "internalType": "string",
          "name": "filePath",
          "type": "string"
        },
        {
          "internalType": "string",
          "name": "businessName",
          "type": "string"
        }
      ],
      "stateMutability": "view",
      "type": "function"
    },
    {
      "inputs": [],
      "name": "getVendorCount",
      "outputs": [
        {
          "internalType": "uint256",
          "name": "",
          "type": "uint256"
        }
      ],
      "stateMutability": "view",
      "type": "function"
    },
    {
      "inputs": [],
      "name": "getVendorTransactionCount",
      "outputs": [
        {
          "internalType": "uint256",
          "name": "",
          "type": "uint256"
        }
      ],
      "stateMutability": "view",
      "type": "function"
    },
    {
      "inputs": [
        {
          "internalType": "uint256",
          "name": "_index",
          "type": "uint256"
        },
        {
          "internalType": "address",
          "name": "_vendorAddress",
          "type": "address"
        }
      ],
      "name": "getVendorTransactions",
      "outputs": [
        {
          "internalType": "uint256",
          "name": "transactionIndex",
          "type": "uint256"
        },
        {
          "internalType": "address",
          "name": "customer",
          "type": "address"
        },
        {
          "internalType": "enum Tmkt.Status",
          "name": "status",
          "type": "uint8"
        },
        {
          "internalType": "uint256",
          "name": "dateCreated",
          "type": "uint256"
        },
        {
          "internalType": "uint256",
          "name": "dateCompleted",
          "type": "uint256"
        }
      ],
      "stateMutability": "view",
      "type": "function"
    },
    {
      "inputs": [
        {
          "internalType": "uint256",
          "name": "_index",
          "type": "uint256"
        }
      ],
      "name": "getVendors",
      "outputs": [
        {
          "internalType": "uint256",
          "name": "id",
          "type": "uint256"
        },
        {
          "internalType": "address",
          "name": "vendorAddress",
          "type": "address"
        },
        {
          "internalType": "string",
          "name": "businessName",
          "type": "string"
        },
        {
          "internalType": "string",
          "name": "filePath",
          "type": "string"
        },
        {
          "internalType": "string",
          "name": "description",
          "type": "string"
        },
        {
          "internalType": "string",
          "name": "profession",
          "type": "string"
        },
        {
          "internalType": "uint256",
          "name": "price",
          "type": "uint256"
        },
        {
          "internalType": "uint256",
          "name": "totalAmount",
          "type": "uint256"
        },
        {
          "internalType": "uint256",
          "name": "transCount",
          "type": "uint256"
        },
        {
          "internalType": "int256",
          "name": "rating",
          "type": "int256"
        }
      ],
      "stateMutability": "view",
      "type": "function"
    },
    {
      "inputs": [],
      "name": "refundInProgressTransactions",
      "outputs": [],
      "stateMutability": "nonpayable",
      "type": "function"
    },
    {
      "inputs": [],
      "name": "refundReviewTransactions",
      "outputs": [],
      "stateMutability": "nonpayable",
      "type": "function"
    },
    {
      "inputs": [
        {
          "internalType": "uint256",
          "name": "_index",
          "type": "uint256"
        },
        {
          "internalType": "address",
          "name": "_customerAddress",
          "type": "address"
        }
      ],
      "name": "serviceReviewing",
      "outputs": [],
      "stateMutability": "nonpayable",
      "type": "function"
    },
    {
      "inputs": [
        {
          "internalType": "address",
          "name": "_vendorAddress",
          "type": "address"
        },
        {
          "internalType": "uint256",
          "name": "_tipAmount",
          "type": "uint256"
        }
      ],
      "name": "tipVendor",
      "outputs": [],
      "stateMutability": "nonpayable",
      "type": "function"
    },
    {
      "inputs": [
        {
          "internalType": "uint256",
          "name": "_index",
          "type": "uint256"
        },
        {
          "internalType": "address",
          "name": "_customerAddress",
          "type": "address"
        }
      ],
      "name": "vendorCancelService",
      "outputs": [],
      "stateMutability": "nonpayable",
      "type": "function"
    },
    {
      "inputs": [],
      "name": "vendorCount",
      "outputs": [
        {
          "internalType": "uint256",
          "name": "",
          "type": "uint256"
        }
      ],
      "stateMutability": "view",
      "type": "function"
    },
    {
      "inputs": [
        {
          "internalType": "address",
          "name": "",
          "type": "address"
        }
      ],
      "name": "vendorExists",
      "outputs": [
        {
          "internalType": "bool",
          "name": "",
          "type": "bool"
        }
      ],
      "stateMutability": "view",
      "type": "function"
    }
  ],
  "bytecode": "0x608060405234801561001057600080fd5b50613e82806100206000396000f3fe6080604052600436106101095760003560e01c80637f39836811610095578063a3ac561711610064578063a3ac561714610358578063ac4caef01461036f578063dd970f1014610398578063df6403fa146103de578063e2a80b1a1461040757610109565b80637f398368146102c05780638858287b146102eb5780639a6239d814610316578063a12eba7c1461032d57610109565b80633e6dbf55116100dc5780633e6dbf55146101b65780633f1f2d24146101f757806359b46d051461023e5780635c058738146102675780637cf4c543146102a457610109565b806325caa2621461010e5780632e7700f01461013957806339213d32146101645780633aeae64d1461018d575b600080fd5b34801561011a57600080fd5b50610123610430565b6040516101309190612c7e565b60405180910390f35b34801561014557600080fd5b5061014e610438565b60405161015b9190612c7e565b60405180910390f35b34801561017057600080fd5b5061018b60048036038101906101869190612d37565b61047f565b005b34801561019957600080fd5b506101b460048036038101906101af9190612d37565b610843565b005b3480156101c257600080fd5b506101dd60048036038101906101d89190612d37565b610aa0565b6040516101ee959493929190612dfd565b60405180910390f35b34801561020357600080fd5b5061021e60048036038101906102199190612d37565b610bf5565b6040516102359b9a99989796959493929190612ee9565b60405180910390f35b34801561024a57600080fd5b5061026560048036038101906102609190612fa2565b610e42565b005b34801561027357600080fd5b5061028e60048036038101906102899190612fe2565b610ef3565b60405161029b919061302a565b60405180910390f35b6102be60048036038101906102b99190613083565b610f13565b005b3480156102cc57600080fd5b506102d5611511565b6040516102e29190612c7e565b60405180910390f35b3480156102f757600080fd5b50610300611558565b60405161030d9190612c7e565b60405180910390f35b34801561032257600080fd5b5061032b61155e565b005b34801561033957600080fd5b506103426119c7565b60405161034f9190612c7e565b60405180910390f35b34801561036457600080fd5b5061036d6119d1565b005b34801561037b57600080fd5b5061039660048036038101906103919190612d37565b611e72565b005b3480156103a457600080fd5b506103bf60048036038101906103ba91906130c3565b61214c565b6040516103d59a99989796959493929190613109565b60405180910390f35b3480156103ea57600080fd5b50610405600480360381019061040091906132f6565b61240e565b005b34801561041357600080fd5b5061042e60048036038101906104299190612d37565b612602565b005b600047905090565b6000600260003373ffffffffffffffffffffffffffffffffffffffff1673ffffffffffffffffffffffffffffffffffffffff16815260200190815260200160002054905090565b6000600460003373ffffffffffffffffffffffffffffffffffffffff1673ffffffffffffffffffffffffffffffffffffffff16815260200190815260200160002083815481106104d2576104d16133e1565b5b906000526020600020906008020190506000600560008473ffffffffffffffffffffffffffffffffffffffff1673ffffffffffffffffffffffffffffffffffffffff1681526020019081526020016000208481548110610535576105346133e1565b5b906000526020600020906005020190503373ffffffffffffffffffffffffffffffffffffffff168260020160009054906101000a900473ffffffffffffffffffffffffffffffffffffffff1673ffffffffffffffffffffffffffffffffffffffff16146105d7576040517f08c379a00000000000000000000000000000000000000000000000000000000081526004016105ce90613482565b60405180910390fd5b600260038111156105eb576105ea612d86565b5b8260040160009054906101000a900460ff16600381111561060f5761060e612d86565b5b148061065057506001600381111561062a57610629612d86565b5b8260040160009054906101000a900460ff16600381111561064e5761064d612d86565b5b145b61068f576040517f08c379a000000000000000000000000000000000000000000000000000000000815260040161068690613514565b60405180910390fd5b60008373ffffffffffffffffffffffffffffffffffffffff1683600301546040516106b990613565565b60006040518083038185875af1925050503d80600081146106f6576040519150601f19603f3d011682016040523d82523d6000602084013e6106fb565b606091505b505090508061073f576040517f08c379a0000000000000000000000000000000000000000000000000000000008152600401610736906135c6565b60405180910390fd5b60038081111561075257610751612d86565b5b8360040160006101000a81548160ff0219169083600381111561077857610777612d86565b5b021790555042836006018190555060038081111561079957610798612d86565b5b8260010160146101000a81548160ff021916908360038111156107bf576107be612d86565b5b021790555042826004018190555060006006600085600001548152602001908152602001600020905083600301548160060160008282546108009190613615565b9250508190555080600701600081548092919061081c9061366b565b9190505550806008016000815480929190610836906136b4565b9190505550505050505050565b6000600460008373ffffffffffffffffffffffffffffffffffffffff1673ffffffffffffffffffffffffffffffffffffffff1681526020019081526020016000208381548110610896576108956133e1565b5b906000526020600020906008020190506000600560003373ffffffffffffffffffffffffffffffffffffffff1673ffffffffffffffffffffffffffffffffffffffff16815260200190815260200160002084815481106108f9576108f86133e1565b5b906000526020600020906005020190503373ffffffffffffffffffffffffffffffffffffffff168260010160009054906101000a900473ffffffffffffffffffffffffffffffffffffffff1673ffffffffffffffffffffffffffffffffffffffff161461099b576040517f08c379a00000000000000000000000000000000000000000000000000000000081526004016109929061376f565b60405180910390fd5b6003808111156109ae576109ad612d86565b5b8260040160009054906101000a900460ff1660038111156109d2576109d1612d86565b5b1415610a13576040517f08c379a0000000000000000000000000000000000000000000000000000000008152600401610a0a90613801565b60405180910390fd5b60026003811115610a2757610a26612d86565b5b8260040160006101000a81548160ff02191690836003811115610a4d57610a4c612d86565b5b021790555042826007018190555060026003811115610a6f57610a6e612d86565b5b8160010160146101000a81548160ff02191690836003811115610a9557610a94612d86565b5b021790555050505050565b600080600080600060011515600760008873ffffffffffffffffffffffffffffffffffffffff1673ffffffffffffffffffffffffffffffffffffffff16815260200190815260200160002060009054906101000a900460ff16151514610b3b576040517f08c379a0000000000000000000000000000000000000000000000000000000008152600401610b329061386d565b60405180910390fd5b6000600560008873ffffffffffffffffffffffffffffffffffffffff1673ffffffffffffffffffffffffffffffffffffffff1681526020019081526020016000208881548110610b8e57610b8d6133e1565b5b90600052602060002090600502019050878160010160009054906101000a900473ffffffffffffffffffffffffffffffffffffffff168260010160149054906101000a900460ff168360030154846004015495509550955095509550509295509295909350565b60008060008060008060008060006060806000600460008e73ffffffffffffffffffffffffffffffffffffffff1673ffffffffffffffffffffffffffffffffffffffff1681526020019081526020016000208e81548110610c5957610c586133e1565b5b906000526020600020906008020190506000600660008360000154815260200190815260200160002090508e82600001548360010160009054906101000a900473ffffffffffffffffffffffffffffffffffffffff168460020160009054906101000a900473ffffffffffffffffffffffffffffffffffffffff1685600301548660040160009054906101000a900460ff16876005015488600601548960070154896003018a600101818054610d0e906138bc565b80601f0160208091040260200160405190810160405280929190818152602001828054610d3a906138bc565b8015610d875780601f10610d5c57610100808354040283529160200191610d87565b820191906000526020600020905b815481529060010190602001808311610d6a57829003601f168201915b50505050509150808054610d9a906138bc565b80601f0160208091040260200160405190810160405280929190818152602001828054610dc6906138bc565b8015610e135780601f10610de857610100808354040283529160200191610e13565b820191906000526020600020905b815481529060010190602001808311610df657829003601f168201915b505050505090509c509c509c509c509c509c509c509c509c509c509c5050509295989b509295989b9093969950565b60008273ffffffffffffffffffffffffffffffffffffffff1682604051610e6890613565565b60006040518083038185875af1925050503d8060008114610ea5576040519150601f19603f3d011682016040523d82523d6000602084013e610eaa565b606091505b5050905080610eee576040517f08c379a0000000000000000000000000000000000000000000000000000000008152600401610ee5906135c6565b60405180910390fd5b505050565b60076020528060005260406000206000915054906101000a900460ff1681565b600154821115610f58576040517f08c379a0000000000000000000000000000000000000000000000000000000008152600401610f4f9061393a565b60405180910390fd5b3373ffffffffffffffffffffffffffffffffffffffff168173ffffffffffffffffffffffffffffffffffffffff161415610fc7576040517f08c379a0000000000000000000000000000000000000000000000000000000008152600401610fbe906139a6565b60405180910390fd5b600060066000848152602001908152602001600020905034816005015414611024576040517f08c379a000000000000000000000000000000000000000000000000000000000815260040161101b90613a12565b60405180910390fd5b8173ffffffffffffffffffffffffffffffffffffffff168160000160009054906101000a900473ffffffffffffffffffffffffffffffffffffffff1673ffffffffffffffffffffffffffffffffffffffff16146110b6576040517f08c379a00000000000000000000000000000000000000000000000000000000081526004016110ad90613a7e565b60405180910390fd5b6000600160038111156110cc576110cb612d86565b5b9050600460003373ffffffffffffffffffffffffffffffffffffffff1673ffffffffffffffffffffffffffffffffffffffff1681526020019081526020016000206040518061010001604052808681526020018573ffffffffffffffffffffffffffffffffffffffff1681526020013373ffffffffffffffffffffffffffffffffffffffff1681526020013481526020018360038111156111705761116f612d86565b5b815260200142815260200160008152602001600081525090806001815401808255809150506001900390600052602060002090600802016000909190919091506000820151816000015560208201518160010160006101000a81548173ffffffffffffffffffffffffffffffffffffffff021916908373ffffffffffffffffffffffffffffffffffffffff16021790555060408201518160020160006101000a81548173ffffffffffffffffffffffffffffffffffffffff021916908373ffffffffffffffffffffffffffffffffffffffff1602179055506060820151816003015560808201518160040160006101000a81548160ff0219169083600381111561127d5761127c612d86565b5b021790555060a0820151816005015560c0820151816006015560e082015181600701555050600560008473ffffffffffffffffffffffffffffffffffffffff1673ffffffffffffffffffffffffffffffffffffffff1681526020019081526020016000206040518060c001604052808573ffffffffffffffffffffffffffffffffffffffff1681526020013373ffffffffffffffffffffffffffffffffffffffff16815260200183600381111561133757611336612d86565b5b81526020013481526020014281526020016000815250908060018154018082558091505060019003906000526020600020906005020160009091909190915060008201518160000160006101000a81548173ffffffffffffffffffffffffffffffffffffffff021916908373ffffffffffffffffffffffffffffffffffffffff16021790555060208201518160010160006101000a81548173ffffffffffffffffffffffffffffffffffffffff021916908373ffffffffffffffffffffffffffffffffffffffff16021790555060408201518160010160146101000a81548160ff0219169083600381111561142f5761142e612d86565b5b0217905550606082015181600201556080820151816003015560a0820151816004015550506001600260003373ffffffffffffffffffffffffffffffffffffffff1673ffffffffffffffffffffffffffffffffffffffff16815260200190815260200160002060008282546114a49190613615565b925050819055506001600360008573ffffffffffffffffffffffffffffffffffffffff1673ffffffffffffffffffffffffffffffffffffffff16815260200190815260200160002060008282546114fb9190613615565b9250508190555061150b336129a8565b50505050565b6000600360003373ffffffffffffffffffffffffffffffffffffffff1673ffffffffffffffffffffffffffffffffffffffff16815260200190815260200160002054905090565b60015481565b60008054906101000a900460ff16156115ac576040517f08c379a00000000000000000000000000000000000000000000000000000000081526004016115a390613aea565b60405180910390fd5b60016000806101000a81548160ff02191690831515021790555060005b6009805490508110156119aa576000600982815481106115ec576115eb6133e1565b5b9060005260206000200160009054906101000a900473ffffffffffffffffffffffffffffffffffffffff1690506000600560008373ffffffffffffffffffffffffffffffffffffffff1673ffffffffffffffffffffffffffffffffffffffff168152602001908152602001600020905060005b81805490508110156119945760008282815481106116805761167f6133e1565b5b90600052602060002090600502019050600260038111156116a4576116a3612d86565b5b60038111156116b6576116b5612d86565b5b8160010160149054906101000a900460ff1660038111156116da576116d9612d86565b5b1480156116f857506203f48081600301546116f59190613615565b42115b156119805760008160000160009054906101000a900473ffffffffffffffffffffffffffffffffffffffff1673ffffffffffffffffffffffffffffffffffffffff16826002015460405161174b90613565565b60006040518083038185875af1925050503d8060008114611788576040519150601f19603f3d011682016040523d82523d6000602084013e61178d565b606091505b50509050806117d1576040517f08c379a00000000000000000000000000000000000000000000000000000000081526004016117c8906135c6565b60405180910390fd5b6003808111156117e4576117e3612d86565b5b8260010160146101000a81548160ff0219169083600381111561180a57611809612d86565b5b02179055504282600401819055506000600460008460010160009054906101000a900473ffffffffffffffffffffffffffffffffffffffff1673ffffffffffffffffffffffffffffffffffffffff1673ffffffffffffffffffffffffffffffffffffffff168152602001908152602001600020905060005b818054905081101561197c5760008282815481106118a3576118a26133e1565b5b90600052602060002090600802019050600260038111156118c7576118c6612d86565b5b60038111156118d9576118d8612d86565b5b8160040160009054906101000a900460ff1660038111156118fd576118fc612d86565b5b14801561191b57506203f48081600501546119189190613615565b42115b156119685760038081111561193357611932612d86565b5b8160040160006101000a81548160ff0219169083600381111561195957611958612d86565b5b02179055504281600601819055505b5080806119749061366b565b915050611882565b5050505b50808061198c9061366b565b91505061165f565b50505080806119a29061366b565b9150506115c9565b5060008060006101000a81548160ff021916908315150217905550565b6000600154905090565b60008054906101000a900460ff1615611a1f576040517f08c379a0000000000000000000000000000000000000000000000000000000008152600401611a1690613aea565b60405180910390fd5b60016000806101000a81548160ff02191690831515021790555060005b600880549050811015611e5557600060088281548110611a5f57611a5e6133e1565b5b9060005260206000200160009054906101000a900473ffffffffffffffffffffffffffffffffffffffff1690506000600460008373ffffffffffffffffffffffffffffffffffffffff1673ffffffffffffffffffffffffffffffffffffffff168152602001908152602001600020905060005b8180549050811015611e3f576000828281548110611af357611af26133e1565b5b9060005260206000209060080201905060016003811115611b1757611b16612d86565b5b6003811115611b2957611b28612d86565b5b8160040160009054906101000a900460ff166003811115611b4d57611b4c612d86565b5b148015611b6b57506202a3008160050154611b689190613615565b42115b15611e2b5760008160020160009054906101000a900473ffffffffffffffffffffffffffffffffffffffff1673ffffffffffffffffffffffffffffffffffffffff168260030154604051611bbe90613565565b60006040518083038185875af1925050503d8060008114611bfb576040519150601f19603f3d011682016040523d82523d6000602084013e611c00565b606091505b5050905080611c44576040517f08c379a0000000000000000000000000000000000000000000000000000000008152600401611c3b906135c6565b60405180910390fd5b600380811115611c5757611c56612d86565b5b8260040160006101000a81548160ff02191690836003811115611c7d57611c7c612d86565b5b02179055504282600601819055506000600660008460000154815260200190815260200160002090506002816008016000828254611cbb9190613b0a565b925050819055506000600560008560010160009054906101000a900473ffffffffffffffffffffffffffffffffffffffff1673ffffffffffffffffffffffffffffffffffffffff1673ffffffffffffffffffffffffffffffffffffffff168152602001908152602001600020905060005b8180549050811015611e26576000828281548110611d4d57611d4c6133e1565b5b9060005260206000209060050201905060016003811115611d7157611d70612d86565b5b6003811115611d8357611d82612d86565b5b8160010160149054906101000a900460ff166003811115611da757611da6612d86565b5b148015611dc557506202a3008160030154611dc29190613615565b42115b15611e1257600380811115611ddd57611ddc612d86565b5b8160010160146101000a81548160ff02191690836003811115611e0357611e02612d86565b5b02179055504281600401819055505b508080611e1e9061366b565b915050611d2c565b505050505b508080611e379061366b565b915050611ad2565b5050508080611e4d9061366b565b915050611a3c565b5060008060006101000a81548160ff021916908315150217905550565b6000600460008373ffffffffffffffffffffffffffffffffffffffff1673ffffffffffffffffffffffffffffffffffffffff1681526020019081526020016000208381548110611ec557611ec46133e1565b5b906000526020600020906008020190506000600560003373ffffffffffffffffffffffffffffffffffffffff1673ffffffffffffffffffffffffffffffffffffffff1681526020019081526020016000208481548110611f2857611f276133e1565b5b906000526020600020906005020190506203f4808260050154611f4b9190613615565b421115611f8d576040517f08c379a0000000000000000000000000000000000000000000000000000000008152600401611f8490613bea565b60405180910390fd5b60016003811115611fa157611fa0612d86565b5b8260040160009054906101000a900460ff166003811115611fc557611fc4612d86565b5b14612005576040517f08c379a0000000000000000000000000000000000000000000000000000000008152600401611ffc90613c56565b60405180910390fd5b60008373ffffffffffffffffffffffffffffffffffffffff16836003015460405161202f90613565565b60006040518083038185875af1925050503d806000811461206c576040519150601f19603f3d011682016040523d82523d6000602084013e612071565b606091505b50509050806120b5576040517f08c379a00000000000000000000000000000000000000000000000000000000081526004016120ac906135c6565b60405180910390fd5b600060038111156120c9576120c8612d86565b5b8360040160006101000a81548160ff021916908360038111156120ef576120ee612d86565b5b02179055504283600601819055506000600381111561211157612110612d86565b5b8260010160146101000a81548160ff0219169083600381111561213757612136612d86565b5b02179055504282600401819055505050505050565b6000806060806060806000806000806000600660008d815260200190815260200160002090508b8160000160009054906101000a900473ffffffffffffffffffffffffffffffffffffffff168260010183600301846004018560020186600501548760060154886007015489600801548780546121c8906138bc565b80601f01602080910402602001604051908101604052809291908181526020018280546121f4906138bc565b80156122415780601f1061221657610100808354040283529160200191612241565b820191906000526020600020905b81548152906001019060200180831161222457829003601f168201915b50505050509750868054612254906138bc565b80601f0160208091040260200160405190810160405280929190818152602001828054612280906138bc565b80156122cd5780601f106122a2576101008083540402835291602001916122cd565b820191906000526020600020905b8154815290600101906020018083116122b057829003601f168201915b505050505096508580546122e0906138bc565b80601f016020809104026020016040519081016040528092919081815260200182805461230c906138bc565b80156123595780601f1061232e57610100808354040283529160200191612359565b820191906000526020600020905b81548152906001019060200180831161233c57829003601f168201915b5050505050955084805461236c906138bc565b80601f0160208091040260200160405190810160405280929190818152602001828054612398906138bc565b80156123e55780601f106123ba576101008083540402835291602001916123e5565b820191906000526020600020905b8154815290600101906020018083116123c857829003601f168201915b505050505094509a509a509a509a509a509a509a509a509a509a50509193959799509193959799565b60001515600760003373ffffffffffffffffffffffffffffffffffffffff1673ffffffffffffffffffffffffffffffffffffffff16815260200190815260200160002060009054906101000a900460ff161515146124a1576040517f08c379a000000000000000000000000000000000000000000000000000000000815260040161249890613cc2565b60405180910390fd5b60008060006006600060015481526020019081526020016000209050338160000160006101000a81548173ffffffffffffffffffffffffffffffffffffffff021916908373ffffffffffffffffffffffffffffffffffffffff16021790555087816001019080519060200190612518929190612bc2565b5086816002019080519060200190612531929190612bc2565b508581600301908051906020019061254a929190612bc2565b5084816004019080519060200190612563929190612bc2565b508381600501819055508281600601819055508181600701819055506001600760003373ffffffffffffffffffffffffffffffffffffffff1673ffffffffffffffffffffffffffffffffffffffff16815260200190815260200160002060006101000a81548160ff021916908315150217905550600160008154809291906125ea9061366b565b91905055506125f833612ab5565b5050505050505050565b6000600460003373ffffffffffffffffffffffffffffffffffffffff1673ffffffffffffffffffffffffffffffffffffffff1681526020019081526020016000208381548110612655576126546133e1565b5b906000526020600020906008020190506000600560008473ffffffffffffffffffffffffffffffffffffffff1673ffffffffffffffffffffffffffffffffffffffff16815260200190815260200160002084815481106126b8576126b76133e1565b5b90600052602060002090600502019050600260038111156126dc576126db612d86565b5b8260040160009054906101000a900460ff166003811115612700576126ff612d86565b5b1415801561272057506203f480826005015461271c9190613615565b4211155b61275f576040517f08c379a000000000000000000000000000000000000000000000000000000000815260040161275690613d2e565b60405180910390fd5b3373ffffffffffffffffffffffffffffffffffffffff168260020160009054906101000a900473ffffffffffffffffffffffffffffffffffffffff1673ffffffffffffffffffffffffffffffffffffffff16146127f1576040517f08c379a00000000000000000000000000000000000000000000000000000000081526004016127e890613dc0565b60405180910390fd5b60008054906101000a900460ff161561283f576040517f08c379a000000000000000000000000000000000000000000000000000000000815260040161283690613e2c565b60405180910390fd5b60016000806101000a81548160ff02191690831515021790555060003373ffffffffffffffffffffffffffffffffffffffff16836003015460405161288390613565565b60006040518083038185875af1925050503d80600081146128c0576040519150601f19603f3d011682016040523d82523d6000602084013e6128c5565b606091505b5050905080612909576040517f08c379a0000000000000000000000000000000000000000000000000000000008152600401612900906135c6565b60405180910390fd5b60008060006101000a81548160ff0219169083151502179055506000600381111561293757612936612d86565b5b8360040160006101000a81548160ff0219169083600381111561295d5761295c612d86565b5b021790555042836006018190555060008260010160146101000a81548160ff0219169083600381111561299357612992612d86565b5b02179055504282600401819055505050505050565b6000805b600880549050811015612a47578273ffffffffffffffffffffffffffffffffffffffff16600882815481106129e4576129e36133e1565b5b9060005260206000200160009054906101000a900473ffffffffffffffffffffffffffffffffffffffff1673ffffffffffffffffffffffffffffffffffffffff161415612a345760019150612a47565b8080612a3f9061366b565b9150506129ac565b5080612ab1576008829080600181540180825580915050600190039060005260206000200160009091909190916101000a81548173ffffffffffffffffffffffffffffffffffffffff021916908373ffffffffffffffffffffffffffffffffffffffff1602179055505b5050565b6000805b600980549050811015612b54578273ffffffffffffffffffffffffffffffffffffffff1660098281548110612af157612af06133e1565b5b9060005260206000200160009054906101000a900473ffffffffffffffffffffffffffffffffffffffff1673ffffffffffffffffffffffffffffffffffffffff161415612b415760019150612b54565b8080612b4c9061366b565b915050612ab9565b5080612bbe576009829080600181540180825580915050600190039060005260206000200160009091909190916101000a81548173ffffffffffffffffffffffffffffffffffffffff021916908373ffffffffffffffffffffffffffffffffffffffff1602179055505b5050565b828054612bce906138bc565b90600052602060002090601f016020900481019282612bf05760008555612c37565b82601f10612c0957805160ff1916838001178555612c37565b82800160010185558215612c37579182015b82811115612c36578251825591602001919060010190612c1b565b5b509050612c449190612c48565b5090565b5b80821115612c61576000816000905550600101612c49565b5090565b6000819050919050565b612c7881612c65565b82525050565b6000602082019050612c936000830184612c6f565b92915050565b6000604051905090565b600080fd5b600080fd5b612cb681612c65565b8114612cc157600080fd5b50565b600081359050612cd381612cad565b92915050565b600073ffffffffffffffffffffffffffffffffffffffff82169050919050565b6000612d0482612cd9565b9050919050565b612d1481612cf9565b8114612d1f57600080fd5b50565b600081359050612d3181612d0b565b92915050565b60008060408385031215612d4e57612d4d612ca3565b5b6000612d5c85828601612cc4565b9250506020612d6d85828601612d22565b9150509250929050565b612d8081612cf9565b82525050565b7f4e487b7100000000000000000000000000000000000000000000000000000000600052602160045260246000fd5b60048110612dc657612dc5612d86565b5b50565b6000819050612dd782612db5565b919050565b6000612de782612dc9565b9050919050565b612df781612ddc565b82525050565b600060a082019050612e126000830188612c6f565b612e1f6020830187612d77565b612e2c6040830186612dee565b612e396060830185612c6f565b612e466080830184612c6f565b9695505050505050565b600081519050919050565b600082825260208201905092915050565b60005b83811015612e8a578082015181840152602081019050612e6f565b83811115612e99576000848401525b50505050565b6000601f19601f8301169050919050565b6000612ebb82612e50565b612ec58185612e5b565b9350612ed5818560208601612e6c565b612ede81612e9f565b840191505092915050565b600061016082019050612eff600083018e612c6f565b612f0c602083018d612c6f565b612f19604083018c612d77565b612f26606083018b612d77565b612f33608083018a612c6f565b612f4060a0830189612dee565b612f4d60c0830188612c6f565b612f5a60e0830187612c6f565b612f68610100830186612c6f565b818103610120830152612f7b8185612eb0565b9050818103610140830152612f908184612eb0565b90509c9b505050505050505050505050565b60008060408385031215612fb957612fb8612ca3565b5b6000612fc785828601612d22565b9250506020612fd885828601612cc4565b9150509250929050565b600060208284031215612ff857612ff7612ca3565b5b600061300684828501612d22565b91505092915050565b60008115159050919050565b6130248161300f565b82525050565b600060208201905061303f600083018461301b565b92915050565b600061305082612cd9565b9050919050565b61306081613045565b811461306b57600080fd5b50565b60008135905061307d81613057565b92915050565b6000806040838503121561309a57613099612ca3565b5b60006130a885828601612cc4565b92505060206130b98582860161306e565b9150509250929050565b6000602082840312156130d9576130d8612ca3565b5b60006130e784828501612cc4565b91505092915050565b6000819050919050565b613103816130f0565b82525050565b60006101408201905061311f600083018d612c6f565b61312c602083018c612d77565b818103604083015261313e818b612eb0565b90508181036060830152613152818a612eb0565b905081810360808301526131668189612eb0565b905081810360a083015261317a8188612eb0565b905061318960c0830187612c6f565b61319660e0830186612c6f565b6131a4610100830185612c6f565b6131b26101208301846130fa565b9b9a5050505050505050505050565b600080fd5b600080fd5b7f4e487b7100000000000000000000000000000000000000000000000000000000600052604160045260246000fd5b61320382612e9f565b810181811067ffffffffffffffff82111715613222576132216131cb565b5b80604052505050565b6000613235612c99565b905061324182826131fa565b919050565b600067ffffffffffffffff821115613261576132606131cb565b5b61326a82612e9f565b9050602081019050919050565b82818337600083830152505050565b600061329961329484613246565b61322b565b9050828152602081018484840111156132b5576132b46131c6565b5b6132c0848285613277565b509392505050565b600082601f8301126132dd576132dc6131c1565b5b81356132ed848260208601613286565b91505092915050565b600080600080600060a0868803121561331257613311612ca3565b5b600086013567ffffffffffffffff8111156133305761332f612ca8565b5b61333c888289016132c8565b955050602086013567ffffffffffffffff81111561335d5761335c612ca8565b5b613369888289016132c8565b945050604086013567ffffffffffffffff81111561338a57613389612ca8565b5b613396888289016132c8565b935050606086013567ffffffffffffffff8111156133b7576133b6612ca8565b5b6133c3888289016132c8565b92505060806133d488828901612cc4565b9150509295509295909350565b7f4e487b7100000000000000000000000000000000000000000000000000000000600052603260045260246000fd5b7f4f6e6c792074686520637573746f6d65722063616e20636f6e6669726d20746860008201527f6520736572766963650000000000000000000000000000000000000000000000602082015250565b600061346c602983612e5b565b915061347782613410565b604082019050919050565b6000602082019050818103600083015261349b8161345f565b9050919050565b7f5472616e73616374696f6e20686173206265656e20636f6d706c65746564206160008201527f6c72656164790000000000000000000000000000000000000000000000000000602082015250565b60006134fe602683612e5b565b9150613509826134a2565b604082019050919050565b6000602082019050818103600083015261352d816134f1565b9050919050565b600081905092915050565b50565b600061354f600083613534565b915061355a8261353f565b600082019050919050565b600061357082613542565b9150819050919050565b7f4661696c656420746f2073656e64204574686572000000000000000000000000600082015250565b60006135b0601483612e5b565b91506135bb8261357a565b602082019050919050565b600060208201905081810360008301526135df816135a3565b9050919050565b7f4e487b7100000000000000000000000000000000000000000000000000000000600052601160045260246000fd5b600061362082612c65565b915061362b83612c65565b9250827fffffffffffffffffffffffffffffffffffffffffffffffffffffffffffffffff038211156136605761365f6135e6565b5b828201905092915050565b600061367682612c65565b91507fffffffffffffffffffffffffffffffffffffffffffffffffffffffffffffffff8214156136a9576136a86135e6565b5b600182019050919050565b60006136bf826130f0565b91507f7fffffffffffffffffffffffffffffffffffffffffffffffffffffffffffffff8214156136f2576136f16135e6565b5b600182019050919050565b7f4f6e6c79207468652056656e646f722063616e20636f6e6669726d207365727660008201527f69636520636f6d706c6574656400000000000000000000000000000000000000602082015250565b6000613759602d83612e5b565b9150613764826136fd565b604082019050919050565b600060208201905081810360008301526137888161374c565b9050919050565b7f4f6e6c792074686520437573746f6d65722063616e20636f6e6669726d20736560008201527f727669636520636f6d706c657465640000000000000000000000000000000000602082015250565b60006137eb602f83612e5b565b91506137f68261378f565b604082019050919050565b6000602082019050818103600083015261381a816137de565b9050919050565b7f596f7520617265206e6f7420612076656e646f72000000000000000000000000600082015250565b6000613857601483612e5b565b915061386282613821565b602082019050919050565b600060208201905081810360008301526138868161384a565b9050919050565b7f4e487b7100000000000000000000000000000000000000000000000000000000600052602260045260246000fd5b600060028204905060018216806138d457607f821691505b602082108114156138e8576138e761388d565b5b50919050565b7f56656e646f7220696e64657820646f6573206e6f742065786973740000000000600082015250565b6000613924601b83612e5b565b915061392f826138ee565b602082019050919050565b6000602082019050818103600083015261395381613917565b9050919050565b7f596f752063616e27742062757920796f7572206f776e2070726f647563740000600082015250565b6000613990601e83612e5b565b915061399b8261395a565b602082019050919050565b600060208201905081810360008301526139bf81613983565b9050919050565b7f57726f6e6720616d6f756e7420656e7465726564000000000000000000000000600082015250565b60006139fc601483612e5b565b9150613a07826139c6565b602082019050919050565b60006020820190508181036000830152613a2b816139ef565b9050919050565b7f57726f6e672056656e646f72206164647265737320656e746572656400000000600082015250565b6000613a68601c83612e5b565b9150613a7382613a32565b602082019050919050565b60006020820190508181036000830152613a9781613a5b565b9050919050565b7f5265656e7472616e637920646574656374656421000000000000000000000000600082015250565b6000613ad4601483612e5b565b9150613adf82613a9e565b602082019050919050565b60006020820190508181036000830152613b0381613ac7565b9050919050565b6000613b15826130f0565b9150613b20836130f0565b9250827f800000000000000000000000000000000000000000000000000000000000000001821260008412151615613b5b57613b5a6135e6565b5b827f7fffffffffffffffffffffffffffffffffffffffffffffffffffffffffffffff018213600084121615613b9357613b926135e6565b5b828203905092915050565b7f596f752063616e206e6f742063616e63656c206e6f7700000000000000000000600082015250565b6000613bd4601683612e5b565b9150613bdf82613b9e565b602082019050919050565b60006020820190508181036000830152613c0381613bc7565b9050919050565b7f43616e27742063616e63656c2061742074686973207374616765000000000000600082015250565b6000613c40601a83612e5b565b9150613c4b82613c0a565b602082019050919050565b60006020820190508181036000830152613c6f81613c33565b9050919050565b7f56656e646f7220616c7265616479206578697374730000000000000000000000600082015250565b6000613cac601583612e5b565b9150613cb782613c76565b602082019050919050565b60006020820190508181036000830152613cdb81613c9f565b9050919050565b7f596f752063616e206e6f742063616e63656c0000000000000000000000000000600082015250565b6000613d18601283612e5b565b9150613d2382613ce2565b602082019050919050565b60006020820190508181036000830152613d4781613d0b565b9050919050565b7f4f6e6c792074686520637573746f6d65722063616e2063616e63656c2074686560008201527f2073657276696365000000000000000000000000000000000000000000000000602082015250565b6000613daa602883612e5b565b9150613db582613d4e565b604082019050919050565b60006020820190508181036000830152613dd981613d9d565b9050919050565b7f526520656e7472616e742063616c6c0000000000000000000000000000000000600082015250565b6000613e16600f83612e5b565b9150613e2182613de0565b602082019050919050565b60006020820190508181036000830152613e4581613e09565b905091905056fea2646970667358221220abdd633e2c4d8fea72aefccbbe4dee4c75cb92a1c0e39e96518c1864687829f664736f6c63430008090033",
  "linkReferences": {},
  "deployedLinkReferences": {}
}