{
  "_format": "hh-sol-artifact-1",
  "contractName": "Tmkt",
  "sourceName": "contracts/Tmkt.sol",
  "abi": [
    {
      "inputs": [
        {
          "internalType": "uint256",
          "name": "_index",
          "type": "uint256"
        },
        {
          "internalType": "address",
          "name": "_vendorAddress",
          "type": "address"
        }
      ],
      "name": "cancelService",
      "outputs": [],
      "stateMutability": "nonpayable",
      "type": "function"
    },
    {
      "inputs": [
        {
          "internalType": "uint256",
          "name": "_index",
          "type": "uint256"
        },
        {
          "internalType": "address",
          "name": "_vendorAddress",
          "type": "address"
        }
      ],
      "name": "confirmService",
      "outputs": [],
      "stateMutability": "nonpayable",
      "type": "function"
    },
    {
      "inputs": [
        {
          "internalType": "uint256",
          "name": "vendorIndex",
          "type": "uint256"
        },
        {
          "internalType": "address payable",
          "name": "vendor",
          "type": "address"
        }
      ],
      "name": "createTransaction",
      "outputs": [],
      "stateMutability": "payable",
      "type": "function"
    },
    {
      "inputs": [
        {
          "internalType": "string",
          "name": "_businessName",
          "type": "string"
        },
        {
          "internalType": "string",
          "name": "_profession",
          "type": "string"
        },
        {
          "internalType": "string",
          "name": "_filePath",
          "type": "string"
        },
        {
          "internalType": "string",
          "name": "_description",
          "type": "string"
        },
        {
          "internalType": "uint256",
          "name": "_price",
          "type": "uint256"
        },
        {
          "internalType": "string",
          "name": "_soulName",
          "type": "string"
        }
      ],
      "name": "createVendor",
      "outputs": [],
      "stateMutability": "nonpayable",
      "type": "function"
    },
    {
      "inputs": [],
      "name": "getBal",
      "outputs": [
        {
          "internalType": "uint256",
          "name": "",
          "type": "uint256"
        }
      ],
      "stateMutability": "view",
      "type": "function"
    },
    {
      "inputs": [],
      "name": "getTransactionCount",
      "outputs": [
        {
          "internalType": "uint256",
          "name": "",
          "type": "uint256"
        }
      ],
      "stateMutability": "view",
      "type": "function"
    },
    {
      "inputs": [
        {
          "internalType": "uint256",
          "name": "_index",
          "type": "uint256"
        },
        {
          "internalType": "address",
          "name": "_customerAddress",
          "type": "address"
        }
      ],
      "name": "getTransactions",
      "outputs": [
        {
          "internalType": "uint256",
          "name": "transactionIndex",
          "type": "uint256"
        },
        {
          "internalType": "uint256",
          "name": "vendorIndex",
          "type": "uint256"
        },
        {
          "internalType": "address",
          "name": "vendor",
          "type": "address"
        },
        {
          "internalType": "address",
          "name": "customer",
          "type": "address"
        },
        {
          "internalType": "uint256",
          "name": "amount",
          "type": "uint256"
        },
        {
          "internalType": "enum Tmkt.Status",
          "name": "status",
          "type": "uint8"
        },
        {
          "internalType": "uint256",
          "name": "dateCreated",
          "type": "uint256"
        },
        {
          "internalType": "uint256",
          "name": "dateCompleted",
          "type": "uint256"
        },
        {
          "internalType": "uint256",
          "name": "dateReviewing",
          "type": "uint256"
        },
        {
          "internalType": "string",
          "name": "filePath",
          "type": "string"
        },
        {
          "internalType": "string",
          "name": "businessName",
          "type": "string"
        }
      ],
      "stateMutability": "view",
      "type": "function"
    },
    {
      "inputs": [],
      "name": "getVendorCount",
      "outputs": [
        {
          "internalType": "uint256",
          "name": "",
          "type": "uint256"
        }
      ],
      "stateMutability": "view",
      "type": "function"
    },
    {
      "inputs": [],
      "name": "getVendorTransactionCount",
      "outputs": [
        {
          "internalType": "uint256",
          "name": "",
          "type": "uint256"
        }
      ],
      "stateMutability": "view",
      "type": "function"
    },
    {
      "inputs": [
        {
          "internalType": "uint256",
          "name": "_index",
          "type": "uint256"
        },
        {
          "internalType": "address",
          "name": "_vendorAddress",
          "type": "address"
        }
      ],
      "name": "getVendorTransactions",
      "outputs": [
        {
          "internalType": "uint256",
          "name": "transactionIndex",
          "type": "uint256"
        },
        {
          "internalType": "address",
          "name": "customer",
          "type": "address"
        },
        {
          "internalType": "enum Tmkt.Status",
          "name": "status",
          "type": "uint8"
        },
        {
          "internalType": "uint256",
          "name": "dateCreated",
          "type": "uint256"
        },
        {
          "internalType": "uint256",
          "name": "dateCompleted",
          "type": "uint256"
        }
      ],
      "stateMutability": "view",
      "type": "function"
    },
    {
      "inputs": [
        {
          "internalType": "uint256",
          "name": "_index",
          "type": "uint256"
        }
      ],
      "name": "getVendors",
      "outputs": [
        {
          "internalType": "uint256",
          "name": "id",
          "type": "uint256"
        },
        {
          "internalType": "address",
          "name": "vendorAddress",
          "type": "address"
        },
        {
          "internalType": "string",
          "name": "businessName",
          "type": "string"
        },
        {
          "internalType": "string",
          "name": "filePath",
          "type": "string"
        },
        {
          "internalType": "string",
          "name": "description",
          "type": "string"
        },
        {
          "internalType": "string",
          "name": "profession",
          "type": "string"
        },
        {
          "internalType": "uint256",
          "name": "price",
          "type": "uint256"
        },
        {
          "internalType": "uint256",
          "name": "totalAmount",
          "type": "uint256"
        },
        {
          "internalType": "uint256",
          "name": "transCount",
          "type": "uint256"
        },
        {
          "internalType": "int256",
          "name": "rating",
          "type": "int256"
        },
        {
          "internalType": "string",
          "name": "soulName",
          "type": "string"
        }
      ],
      "stateMutability": "view",
      "type": "function"
    },
    {
      "inputs": [],
      "name": "refundInProgressTransactions",
      "outputs": [],
      "stateMutability": "nonpayable",
      "type": "function"
    },
    {
      "inputs": [],
      "name": "refundReviewTransactions",
      "outputs": [],
      "stateMutability": "nonpayable",
      "type": "function"
    },
    {
      "inputs": [
        {
          "internalType": "uint256",
          "name": "_index",
          "type": "uint256"
        },
        {
          "internalType": "address",
          "name": "_customerAddress",
          "type": "address"
        }
      ],
      "name": "serviceReviewing",
      "outputs": [],
      "stateMutability": "nonpayable",
      "type": "function"
    },
    {
      "inputs": [
        {
          "internalType": "address",
          "name": "_vendorAddress",
          "type": "address"
        },
        {
          "internalType": "uint256",
          "name": "_tipAmount",
          "type": "uint256"
        }
      ],
      "name": "tipVendor",
      "outputs": [],
      "stateMutability": "nonpayable",
      "type": "function"
    },
    {
      "inputs": [
        {
          "internalType": "uint256",
          "name": "_index",
          "type": "uint256"
        },
        {
          "internalType": "address",
          "name": "_customerAddress",
          "type": "address"
        }
      ],
      "name": "vendorCancelService",
      "outputs": [],
      "stateMutability": "nonpayable",
      "type": "function"
    },
    {
      "inputs": [],
      "name": "vendorCount",
      "outputs": [
        {
          "internalType": "uint256",
          "name": "",
          "type": "uint256"
        }
      ],
      "stateMutability": "view",
      "type": "function"
    },
    {
      "inputs": [
        {
          "internalType": "address",
          "name": "",
          "type": "address"
        }
      ],
      "name": "vendorExists",
      "outputs": [
        {
          "internalType": "bool",
          "name": "",
          "type": "bool"
        }
      ],
      "stateMutability": "view",
      "type": "function"
    }
  ],
  "bytecode": "0x608060405234801561001057600080fd5b50613f77806100206000396000f3fe6080604052600436106101095760003560e01c80637cf4c54311610095578063a12eba7c11610064578063a12eba7c14610356578063a3ac561714610381578063ac4caef014610398578063dd970f10146103c1578063e2a80b1a1461040857610109565b80637cf4c543146102cd5780637f398368146102e95780638858287b146103145780639a6239d81461033f57610109565b80633aeae64d116100dc5780633aeae64d146101b65780633e6dbf55146101df5780633f1f2d241461022057806359b46d05146102675780635c0587381461029057610109565b80630372c5fd1461010e57806325caa262146101375780632e7700f01461016257806339213d321461018d575b600080fd5b34801561011a57600080fd5b5061013560048036038101906101309190612ea6565b610431565b005b34801561014357600080fd5b5061014c61063f565b6040516101599190612fce565b60405180910390f35b34801561016e57600080fd5b50610177610647565b6040516101849190612fce565b60405180910390f35b34801561019957600080fd5b506101b460048036038101906101af9190613047565b61068e565b005b3480156101c257600080fd5b506101dd60048036038101906101d89190613047565b610a52565b005b3480156101eb57600080fd5b5061020660048036038101906102019190613047565b610caf565b60405161021795949392919061310d565b60405180910390f35b34801561022c57600080fd5b5061024760048036038101906102429190613047565b610e04565b60405161025e9b9a999897969594939291906131e8565b60405180910390f35b34801561027357600080fd5b5061028e600480360381019061028991906132a1565b611051565b005b34801561029c57600080fd5b506102b760048036038101906102b291906132e1565b611102565b6040516102c49190613329565b60405180910390f35b6102e760048036038101906102e29190613382565b611122565b005b3480156102f557600080fd5b506102fe611720565b60405161030b9190612fce565b60405180910390f35b34801561032057600080fd5b50610329611767565b6040516103369190612fce565b60405180910390f35b34801561034b57600080fd5b5061035461176d565b005b34801561036257600080fd5b5061036b611bd6565b6040516103789190612fce565b60405180910390f35b34801561038d57600080fd5b50610396611be0565b005b3480156103a457600080fd5b506103bf60048036038101906103ba9190613047565b612081565b005b3480156103cd57600080fd5b506103e860048036038101906103e391906133c2565b61235b565b6040516103ff9b9a99989796959493929190613408565b60405180910390f35b34801561041457600080fd5b5061042f600480360381019061042a9190613047565b6126b3565b005b60001515600760003373ffffffffffffffffffffffffffffffffffffffff1673ffffffffffffffffffffffffffffffffffffffff16815260200190815260200160002060009054906101000a900460ff161515146104c4576040517f08c379a00000000000000000000000000000000000000000000000000000000081526004016104bb90613522565b60405180910390fd5b60008060006006600060015481526020019081526020016000209050338160000160006101000a81548173ffffffffffffffffffffffffffffffffffffffff021916908373ffffffffffffffffffffffffffffffffffffffff1602179055508881600101908051906020019061053b929190612c73565b5087816002019080519060200190610554929190612c73565b508681600301908051906020019061056d929190612c73565b5085816004019080519060200190610586929190612c73565b50848160050181905550828160060181905550818160070181905550838160090190805190602001906105ba929190612c73565b506001600760003373ffffffffffffffffffffffffffffffffffffffff1673ffffffffffffffffffffffffffffffffffffffff16815260200190815260200160002060006101000a81548160ff0219169083151502179055506001600081548092919061062690613571565b919050555061063433612a59565b505050505050505050565b600047905090565b6000600260003373ffffffffffffffffffffffffffffffffffffffff1673ffffffffffffffffffffffffffffffffffffffff16815260200190815260200160002054905090565b6000600460003373ffffffffffffffffffffffffffffffffffffffff1673ffffffffffffffffffffffffffffffffffffffff16815260200190815260200160002083815481106106e1576106e06135ba565b5b906000526020600020906008020190506000600560008473ffffffffffffffffffffffffffffffffffffffff1673ffffffffffffffffffffffffffffffffffffffff1681526020019081526020016000208481548110610744576107436135ba565b5b906000526020600020906005020190503373ffffffffffffffffffffffffffffffffffffffff168260020160009054906101000a900473ffffffffffffffffffffffffffffffffffffffff1673ffffffffffffffffffffffffffffffffffffffff16146107e6576040517f08c379a00000000000000000000000000000000000000000000000000000000081526004016107dd9061365b565b60405180910390fd5b600260038111156107fa576107f9613096565b5b8260040160009054906101000a900460ff16600381111561081e5761081d613096565b5b148061085f57506001600381111561083957610838613096565b5b8260040160009054906101000a900460ff16600381111561085d5761085c613096565b5b145b61089e576040517f08c379a0000000000000000000000000000000000000000000000000000000008152600401610895906136ed565b60405180910390fd5b60008373ffffffffffffffffffffffffffffffffffffffff1683600301546040516108c89061373e565b60006040518083038185875af1925050503d8060008114610905576040519150601f19603f3d011682016040523d82523d6000602084013e61090a565b606091505b505090508061094e576040517f08c379a00000000000000000000000000000000000000000000000000000000081526004016109459061379f565b60405180910390fd5b60038081111561096157610960613096565b5b8360040160006101000a81548160ff0219169083600381111561098757610986613096565b5b02179055504283600601819055506003808111156109a8576109a7613096565b5b8260010160146101000a81548160ff021916908360038111156109ce576109cd613096565b5b02179055504282600401819055506000600660008560000154815260200190815260200160002090508360030154816006016000828254610a0f91906137bf565b92505081905550806007016000815480929190610a2b90613571565b9190505550806008016000815480929190610a4590613815565b9190505550505050505050565b6000600460008373ffffffffffffffffffffffffffffffffffffffff1673ffffffffffffffffffffffffffffffffffffffff1681526020019081526020016000208381548110610aa557610aa46135ba565b5b906000526020600020906008020190506000600560003373ffffffffffffffffffffffffffffffffffffffff1673ffffffffffffffffffffffffffffffffffffffff1681526020019081526020016000208481548110610b0857610b076135ba565b5b906000526020600020906005020190503373ffffffffffffffffffffffffffffffffffffffff168260010160009054906101000a900473ffffffffffffffffffffffffffffffffffffffff1673ffffffffffffffffffffffffffffffffffffffff1614610baa576040517f08c379a0000000000000000000000000000000000000000000000000000000008152600401610ba1906138d0565b60405180910390fd5b600380811115610bbd57610bbc613096565b5b8260040160009054906101000a900460ff166003811115610be157610be0613096565b5b1415610c22576040517f08c379a0000000000000000000000000000000000000000000000000000000008152600401610c1990613962565b60405180910390fd5b60026003811115610c3657610c35613096565b5b8260040160006101000a81548160ff02191690836003811115610c5c57610c5b613096565b5b021790555042826007018190555060026003811115610c7e57610c7d613096565b5b8160010160146101000a81548160ff02191690836003811115610ca457610ca3613096565b5b021790555050505050565b600080600080600060011515600760008873ffffffffffffffffffffffffffffffffffffffff1673ffffffffffffffffffffffffffffffffffffffff16815260200190815260200160002060009054906101000a900460ff16151514610d4a576040517f08c379a0000000000000000000000000000000000000000000000000000000008152600401610d41906139ce565b60405180910390fd5b6000600560008873ffffffffffffffffffffffffffffffffffffffff1673ffffffffffffffffffffffffffffffffffffffff1681526020019081526020016000208881548110610d9d57610d9c6135ba565b5b90600052602060002090600502019050878160010160009054906101000a900473ffffffffffffffffffffffffffffffffffffffff168260010160149054906101000a900460ff168360030154846004015495509550955095509550509295509295909350565b60008060008060008060008060006060806000600460008e73ffffffffffffffffffffffffffffffffffffffff1673ffffffffffffffffffffffffffffffffffffffff1681526020019081526020016000208e81548110610e6857610e676135ba565b5b906000526020600020906008020190506000600660008360000154815260200190815260200160002090508e82600001548360010160009054906101000a900473ffffffffffffffffffffffffffffffffffffffff168460020160009054906101000a900473ffffffffffffffffffffffffffffffffffffffff1685600301548660040160009054906101000a900460ff16876005015488600601548960070154896003018a600101818054610f1d90613a1d565b80601f0160208091040260200160405190810160405280929190818152602001828054610f4990613a1d565b8015610f965780601f10610f6b57610100808354040283529160200191610f96565b820191906000526020600020905b815481529060010190602001808311610f7957829003601f168201915b50505050509150808054610fa990613a1d565b80601f0160208091040260200160405190810160405280929190818152602001828054610fd590613a1d565b80156110225780601f10610ff757610100808354040283529160200191611022565b820191906000526020600020905b81548152906001019060200180831161100557829003601f168201915b505050505090509c509c509c509c509c509c509c509c509c509c509c5050509295989b509295989b9093969950565b60008273ffffffffffffffffffffffffffffffffffffffff16826040516110779061373e565b60006040518083038185875af1925050503d80600081146110b4576040519150601f19603f3d011682016040523d82523d6000602084013e6110b9565b606091505b50509050806110fd576040517f08c379a00000000000000000000000000000000000000000000000000000000081526004016110f49061379f565b60405180910390fd5b505050565b60076020528060005260406000206000915054906101000a900460ff1681565b600154821115611167576040517f08c379a000000000000000000000000000000000000000000000000000000000815260040161115e90613a9b565b60405180910390fd5b3373ffffffffffffffffffffffffffffffffffffffff168173ffffffffffffffffffffffffffffffffffffffff1614156111d6576040517f08c379a00000000000000000000000000000000000000000000000000000000081526004016111cd90613b07565b60405180910390fd5b600060066000848152602001908152602001600020905034816005015414611233576040517f08c379a000000000000000000000000000000000000000000000000000000000815260040161122a90613b73565b60405180910390fd5b8173ffffffffffffffffffffffffffffffffffffffff168160000160009054906101000a900473ffffffffffffffffffffffffffffffffffffffff1673ffffffffffffffffffffffffffffffffffffffff16146112c5576040517f08c379a00000000000000000000000000000000000000000000000000000000081526004016112bc90613bdf565b60405180910390fd5b6000600160038111156112db576112da613096565b5b9050600460003373ffffffffffffffffffffffffffffffffffffffff1673ffffffffffffffffffffffffffffffffffffffff1681526020019081526020016000206040518061010001604052808681526020018573ffffffffffffffffffffffffffffffffffffffff1681526020013373ffffffffffffffffffffffffffffffffffffffff16815260200134815260200183600381111561137f5761137e613096565b5b815260200142815260200160008152602001600081525090806001815401808255809150506001900390600052602060002090600802016000909190919091506000820151816000015560208201518160010160006101000a81548173ffffffffffffffffffffffffffffffffffffffff021916908373ffffffffffffffffffffffffffffffffffffffff16021790555060408201518160020160006101000a81548173ffffffffffffffffffffffffffffffffffffffff021916908373ffffffffffffffffffffffffffffffffffffffff1602179055506060820151816003015560808201518160040160006101000a81548160ff0219169083600381111561148c5761148b613096565b5b021790555060a0820151816005015560c0820151816006015560e082015181600701555050600560008473ffffffffffffffffffffffffffffffffffffffff1673ffffffffffffffffffffffffffffffffffffffff1681526020019081526020016000206040518060c001604052808573ffffffffffffffffffffffffffffffffffffffff1681526020013373ffffffffffffffffffffffffffffffffffffffff16815260200183600381111561154657611545613096565b5b81526020013481526020014281526020016000815250908060018154018082558091505060019003906000526020600020906005020160009091909190915060008201518160000160006101000a81548173ffffffffffffffffffffffffffffffffffffffff021916908373ffffffffffffffffffffffffffffffffffffffff16021790555060208201518160010160006101000a81548173ffffffffffffffffffffffffffffffffffffffff021916908373ffffffffffffffffffffffffffffffffffffffff16021790555060408201518160010160146101000a81548160ff0219169083600381111561163e5761163d613096565b5b0217905550606082015181600201556080820151816003015560a0820151816004015550506001600260003373ffffffffffffffffffffffffffffffffffffffff1673ffffffffffffffffffffffffffffffffffffffff16815260200190815260200160002060008282546116b391906137bf565b925050819055506001600360008573ffffffffffffffffffffffffffffffffffffffff1673ffffffffffffffffffffffffffffffffffffffff168152602001908152602001600020600082825461170a91906137bf565b9250508190555061171a33612b66565b50505050565b6000600360003373ffffffffffffffffffffffffffffffffffffffff1673ffffffffffffffffffffffffffffffffffffffff16815260200190815260200160002054905090565b60015481565b60008054906101000a900460ff16156117bb576040517f08c379a00000000000000000000000000000000000000000000000000000000081526004016117b290613c4b565b60405180910390fd5b60016000806101000a81548160ff02191690831515021790555060005b600980549050811015611bb9576000600982815481106117fb576117fa6135ba565b5b9060005260206000200160009054906101000a900473ffffffffffffffffffffffffffffffffffffffff1690506000600560008373ffffffffffffffffffffffffffffffffffffffff1673ffffffffffffffffffffffffffffffffffffffff168152602001908152602001600020905060005b8180549050811015611ba357600082828154811061188f5761188e6135ba565b5b90600052602060002090600502019050600260038111156118b3576118b2613096565b5b60038111156118c5576118c4613096565b5b8160010160149054906101000a900460ff1660038111156118e9576118e8613096565b5b14801561190757506203f480816003015461190491906137bf565b42115b15611b8f5760008160000160009054906101000a900473ffffffffffffffffffffffffffffffffffffffff1673ffffffffffffffffffffffffffffffffffffffff16826002015460405161195a9061373e565b60006040518083038185875af1925050503d8060008114611997576040519150601f19603f3d011682016040523d82523d6000602084013e61199c565b606091505b50509050806119e0576040517f08c379a00000000000000000000000000000000000000000000000000000000081526004016119d79061379f565b60405180910390fd5b6003808111156119f3576119f2613096565b5b8260010160146101000a81548160ff02191690836003811115611a1957611a18613096565b5b02179055504282600401819055506000600460008460010160009054906101000a900473ffffffffffffffffffffffffffffffffffffffff1673ffffffffffffffffffffffffffffffffffffffff1673ffffffffffffffffffffffffffffffffffffffff168152602001908152602001600020905060005b8180549050811015611b8b576000828281548110611ab257611ab16135ba565b5b9060005260206000209060080201905060026003811115611ad657611ad5613096565b5b6003811115611ae857611ae7613096565b5b8160040160009054906101000a900460ff166003811115611b0c57611b0b613096565b5b148015611b2a57506203f4808160050154611b2791906137bf565b42115b15611b7757600380811115611b4257611b41613096565b5b8160040160006101000a81548160ff02191690836003811115611b6857611b67613096565b5b02179055504281600601819055505b508080611b8390613571565b915050611a91565b5050505b508080611b9b90613571565b91505061186e565b5050508080611bb190613571565b9150506117d8565b5060008060006101000a81548160ff021916908315150217905550565b6000600154905090565b60008054906101000a900460ff1615611c2e576040517f08c379a0000000000000000000000000000000000000000000000000000000008152600401611c2590613c4b565b60405180910390fd5b60016000806101000a81548160ff02191690831515021790555060005b60088054905081101561206457600060088281548110611c6e57611c6d6135ba565b5b9060005260206000200160009054906101000a900473ffffffffffffffffffffffffffffffffffffffff1690506000600460008373ffffffffffffffffffffffffffffffffffffffff1673ffffffffffffffffffffffffffffffffffffffff168152602001908152602001600020905060005b818054905081101561204e576000828281548110611d0257611d016135ba565b5b9060005260206000209060080201905060016003811115611d2657611d25613096565b5b6003811115611d3857611d37613096565b5b8160040160009054906101000a900460ff166003811115611d5c57611d5b613096565b5b148015611d7a57506202a3008160050154611d7791906137bf565b42115b1561203a5760008160020160009054906101000a900473ffffffffffffffffffffffffffffffffffffffff1673ffffffffffffffffffffffffffffffffffffffff168260030154604051611dcd9061373e565b60006040518083038185875af1925050503d8060008114611e0a576040519150601f19603f3d011682016040523d82523d6000602084013e611e0f565b606091505b5050905080611e53576040517f08c379a0000000000000000000000000000000000000000000000000000000008152600401611e4a9061379f565b60405180910390fd5b600380811115611e6657611e65613096565b5b8260040160006101000a81548160ff02191690836003811115611e8c57611e8b613096565b5b02179055504282600601819055506000600660008460000154815260200190815260200160002090506002816008016000828254611eca9190613c6b565b925050819055506000600560008560010160009054906101000a900473ffffffffffffffffffffffffffffffffffffffff1673ffffffffffffffffffffffffffffffffffffffff1673ffffffffffffffffffffffffffffffffffffffff168152602001908152602001600020905060005b8180549050811015612035576000828281548110611f5c57611f5b6135ba565b5b9060005260206000209060050201905060016003811115611f8057611f7f613096565b5b6003811115611f9257611f91613096565b5b8160010160149054906101000a900460ff166003811115611fb657611fb5613096565b5b148015611fd457506202a3008160030154611fd191906137bf565b42115b1561202157600380811115611fec57611feb613096565b5b8160010160146101000a81548160ff0219169083600381111561201257612011613096565b5b02179055504281600401819055505b50808061202d90613571565b915050611f3b565b505050505b50808061204690613571565b915050611ce1565b505050808061205c90613571565b915050611c4b565b5060008060006101000a81548160ff021916908315150217905550565b6000600460008373ffffffffffffffffffffffffffffffffffffffff1673ffffffffffffffffffffffffffffffffffffffff16815260200190815260200160002083815481106120d4576120d36135ba565b5b906000526020600020906008020190506000600560003373ffffffffffffffffffffffffffffffffffffffff1673ffffffffffffffffffffffffffffffffffffffff1681526020019081526020016000208481548110612137576121366135ba565b5b906000526020600020906005020190506203f480826005015461215a91906137bf565b42111561219c576040517f08c379a000000000000000000000000000000000000000000000000000000000815260040161219390613d4b565b60405180910390fd5b600160038111156121b0576121af613096565b5b8260040160009054906101000a900460ff1660038111156121d4576121d3613096565b5b14612214576040517f08c379a000000000000000000000000000000000000000000000000000000000815260040161220b90613db7565b60405180910390fd5b60008373ffffffffffffffffffffffffffffffffffffffff16836003015460405161223e9061373e565b60006040518083038185875af1925050503d806000811461227b576040519150601f19603f3d011682016040523d82523d6000602084013e612280565b606091505b50509050806122c4576040517f08c379a00000000000000000000000000000000000000000000000000000000081526004016122bb9061379f565b60405180910390fd5b600060038111156122d8576122d7613096565b5b8360040160006101000a81548160ff021916908360038111156122fe576122fd613096565b5b0217905550428360060181905550600060038111156123205761231f613096565b5b8260010160146101000a81548160ff0219169083600381111561234657612345613096565b5b02179055504282600401819055505050505050565b60008060608060608060008060008060606000600660008e815260200190815260200160002090508c8160000160009054906101000a900473ffffffffffffffffffffffffffffffffffffffff168260010183600301846004018560020186600501548760060154886007015489600801548a6009018880546123dd90613a1d565b80601f016020809104026020016040519081016040528092919081815260200182805461240990613a1d565b80156124565780601f1061242b57610100808354040283529160200191612456565b820191906000526020600020905b81548152906001019060200180831161243957829003601f168201915b5050505050985087805461246990613a1d565b80601f016020809104026020016040519081016040528092919081815260200182805461249590613a1d565b80156124e25780601f106124b7576101008083540402835291602001916124e2565b820191906000526020600020905b8154815290600101906020018083116124c557829003601f168201915b505050505097508680546124f590613a1d565b80601f016020809104026020016040519081016040528092919081815260200182805461252190613a1d565b801561256e5780601f106125435761010080835404028352916020019161256e565b820191906000526020600020905b81548152906001019060200180831161255157829003601f168201915b5050505050965085805461258190613a1d565b80601f01602080910402602001604051908101604052809291908181526020018280546125ad90613a1d565b80156125fa5780601f106125cf576101008083540402835291602001916125fa565b820191906000526020600020905b8154815290600101906020018083116125dd57829003601f168201915b5050505050955080805461260d90613a1d565b80601f016020809104026020016040519081016040528092919081815260200182805461263990613a1d565b80156126865780601f1061265b57610100808354040283529160200191612686565b820191906000526020600020905b81548152906001019060200180831161266957829003601f168201915b505050505090509b509b509b509b509b509b509b509b509b509b509b505091939597999b90929496989a50565b6000600460003373ffffffffffffffffffffffffffffffffffffffff1673ffffffffffffffffffffffffffffffffffffffff1681526020019081526020016000208381548110612706576127056135ba565b5b906000526020600020906008020190506000600560008473ffffffffffffffffffffffffffffffffffffffff1673ffffffffffffffffffffffffffffffffffffffff1681526020019081526020016000208481548110612769576127686135ba565b5b906000526020600020906005020190506002600381111561278d5761278c613096565b5b8260040160009054906101000a900460ff1660038111156127b1576127b0613096565b5b141580156127d157506203f48082600501546127cd91906137bf565b4211155b612810576040517f08c379a000000000000000000000000000000000000000000000000000000000815260040161280790613e23565b60405180910390fd5b3373ffffffffffffffffffffffffffffffffffffffff168260020160009054906101000a900473ffffffffffffffffffffffffffffffffffffffff1673ffffffffffffffffffffffffffffffffffffffff16146128a2576040517f08c379a000000000000000000000000000000000000000000000000000000000815260040161289990613eb5565b60405180910390fd5b60008054906101000a900460ff16156128f0576040517f08c379a00000000000000000000000000000000000000000000000000000000081526004016128e790613f21565b60405180910390fd5b60016000806101000a81548160ff02191690831515021790555060003373ffffffffffffffffffffffffffffffffffffffff1683600301546040516129349061373e565b60006040518083038185875af1925050503d8060008114612971576040519150601f19603f3d011682016040523d82523d6000602084013e612976565b606091505b50509050806129ba576040517f08c379a00000000000000000000000000000000000000000000000000000000081526004016129b19061379f565b60405180910390fd5b60008060006101000a81548160ff021916908315150217905550600060038111156129e8576129e7613096565b5b8360040160006101000a81548160ff02191690836003811115612a0e57612a0d613096565b5b021790555042836006018190555060008260010160146101000a81548160ff02191690836003811115612a4457612a43613096565b5b02179055504282600401819055505050505050565b6000805b600980549050811015612af8578273ffffffffffffffffffffffffffffffffffffffff1660098281548110612a9557612a946135ba565b5b9060005260206000200160009054906101000a900473ffffffffffffffffffffffffffffffffffffffff1673ffffffffffffffffffffffffffffffffffffffff161415612ae55760019150612af8565b8080612af090613571565b915050612a5d565b5080612b62576009829080600181540180825580915050600190039060005260206000200160009091909190916101000a81548173ffffffffffffffffffffffffffffffffffffffff021916908373ffffffffffffffffffffffffffffffffffffffff1602179055505b5050565b6000805b600880549050811015612c05578273ffffffffffffffffffffffffffffffffffffffff1660088281548110612ba257612ba16135ba565b5b9060005260206000200160009054906101000a900473ffffffffffffffffffffffffffffffffffffffff1673ffffffffffffffffffffffffffffffffffffffff161415612bf25760019150612c05565b8080612bfd90613571565b915050612b6a565b5080612c6f576008829080600181540180825580915050600190039060005260206000200160009091909190916101000a81548173ffffffffffffffffffffffffffffffffffffffff021916908373ffffffffffffffffffffffffffffffffffffffff1602179055505b5050565b828054612c7f90613a1d565b90600052602060002090601f016020900481019282612ca15760008555612ce8565b82601f10612cba57805160ff1916838001178555612ce8565b82800160010185558215612ce8579182015b82811115612ce7578251825591602001919060010190612ccc565b5b509050612cf59190612cf9565b5090565b5b80821115612d12576000816000905550600101612cfa565b5090565b6000604051905090565b600080fd5b600080fd5b600080fd5b600080fd5b6000601f19601f8301169050919050565b7f4e487b7100000000000000000000000000000000000000000000000000000000600052604160045260246000fd5b612d7d82612d34565b810181811067ffffffffffffffff82111715612d9c57612d9b612d45565b5b80604052505050565b6000612daf612d16565b9050612dbb8282612d74565b919050565b600067ffffffffffffffff821115612ddb57612dda612d45565b5b612de482612d34565b9050602081019050919050565b82818337600083830152505050565b6000612e13612e0e84612dc0565b612da5565b905082815260208101848484011115612e2f57612e2e612d2f565b5b612e3a848285612df1565b509392505050565b600082601f830112612e5757612e56612d2a565b5b8135612e67848260208601612e00565b91505092915050565b6000819050919050565b612e8381612e70565b8114612e8e57600080fd5b50565b600081359050612ea081612e7a565b92915050565b60008060008060008060c08789031215612ec357612ec2612d20565b5b600087013567ffffffffffffffff811115612ee157612ee0612d25565b5b612eed89828a01612e42565b965050602087013567ffffffffffffffff811115612f0e57612f0d612d25565b5b612f1a89828a01612e42565b955050604087013567ffffffffffffffff811115612f3b57612f3a612d25565b5b612f4789828a01612e42565b945050606087013567ffffffffffffffff811115612f6857612f67612d25565b5b612f7489828a01612e42565b9350506080612f8589828a01612e91565b92505060a087013567ffffffffffffffff811115612fa657612fa5612d25565b5b612fb289828a01612e42565b9150509295509295509295565b612fc881612e70565b82525050565b6000602082019050612fe36000830184612fbf565b92915050565b600073ffffffffffffffffffffffffffffffffffffffff82169050919050565b600061301482612fe9565b9050919050565b61302481613009565b811461302f57600080fd5b50565b6000813590506130418161301b565b92915050565b6000806040838503121561305e5761305d612d20565b5b600061306c85828601612e91565b925050602061307d85828601613032565b9150509250929050565b61309081613009565b82525050565b7f4e487b7100000000000000000000000000000000000000000000000000000000600052602160045260246000fd5b600481106130d6576130d5613096565b5b50565b60008190506130e7826130c5565b919050565b60006130f7826130d9565b9050919050565b613107816130ec565b82525050565b600060a0820190506131226000830188612fbf565b61312f6020830187613087565b61313c60408301866130fe565b6131496060830185612fbf565b6131566080830184612fbf565b9695505050505050565b600081519050919050565b600082825260208201905092915050565b60005b8381101561319a57808201518184015260208101905061317f565b838111156131a9576000848401525b50505050565b60006131ba82613160565b6131c4818561316b565b93506131d481856020860161317c565b6131dd81612d34565b840191505092915050565b6000610160820190506131fe600083018e612fbf565b61320b602083018d612fbf565b613218604083018c613087565b613225606083018b613087565b613232608083018a612fbf565b61323f60a08301896130fe565b61324c60c0830188612fbf565b61325960e0830187612fbf565b613267610100830186612fbf565b81810361012083015261327a81856131af565b905081810361014083015261328f81846131af565b90509c9b505050505050505050505050565b600080604083850312156132b8576132b7612d20565b5b60006132c685828601613032565b92505060206132d785828601612e91565b9150509250929050565b6000602082840312156132f7576132f6612d20565b5b600061330584828501613032565b91505092915050565b60008115159050919050565b6133238161330e565b82525050565b600060208201905061333e600083018461331a565b92915050565b600061334f82612fe9565b9050919050565b61335f81613344565b811461336a57600080fd5b50565b60008135905061337c81613356565b92915050565b6000806040838503121561339957613398612d20565b5b60006133a785828601612e91565b92505060206133b88582860161336d565b9150509250929050565b6000602082840312156133d8576133d7612d20565b5b60006133e684828501612e91565b91505092915050565b6000819050919050565b613402816133ef565b82525050565b60006101608201905061341e600083018e612fbf565b61342b602083018d613087565b818103604083015261343d818c6131af565b90508181036060830152613451818b6131af565b90508181036080830152613465818a6131af565b905081810360a083015261347981896131af565b905061348860c0830188612fbf565b61349560e0830187612fbf565b6134a3610100830186612fbf565b6134b16101208301856133f9565b8181036101408301526134c481846131af565b90509c9b505050505050505050505050565b7f56656e646f7220616c7265616479206578697374730000000000000000000000600082015250565b600061350c60158361316b565b9150613517826134d6565b602082019050919050565b6000602082019050818103600083015261353b816134ff565b9050919050565b7f4e487b7100000000000000000000000000000000000000000000000000000000600052601160045260246000fd5b600061357c82612e70565b91507fffffffffffffffffffffffffffffffffffffffffffffffffffffffffffffffff8214156135af576135ae613542565b5b600182019050919050565b7f4e487b7100000000000000000000000000000000000000000000000000000000600052603260045260246000fd5b7f4f6e6c792074686520637573746f6d65722063616e20636f6e6669726d20746860008201527f6520736572766963650000000000000000000000000000000000000000000000602082015250565b600061364560298361316b565b9150613650826135e9565b604082019050919050565b6000602082019050818103600083015261367481613638565b9050919050565b7f5472616e73616374696f6e20686173206265656e20636f6d706c65746564206160008201527f6c72656164790000000000000000000000000000000000000000000000000000602082015250565b60006136d760268361316b565b91506136e28261367b565b604082019050919050565b60006020820190508181036000830152613706816136ca565b9050919050565b600081905092915050565b50565b600061372860008361370d565b915061373382613718565b600082019050919050565b60006137498261371b565b9150819050919050565b7f4661696c656420746f2073656e64204574686572000000000000000000000000600082015250565b600061378960148361316b565b915061379482613753565b602082019050919050565b600060208201905081810360008301526137b88161377c565b9050919050565b60006137ca82612e70565b91506137d583612e70565b9250827fffffffffffffffffffffffffffffffffffffffffffffffffffffffffffffffff0382111561380a57613809613542565b5b828201905092915050565b6000613820826133ef565b91507f7fffffffffffffffffffffffffffffffffffffffffffffffffffffffffffffff82141561385357613852613542565b5b600182019050919050565b7f4f6e6c79207468652056656e646f722063616e20636f6e6669726d207365727660008201527f69636520636f6d706c6574656400000000000000000000000000000000000000602082015250565b60006138ba602d8361316b565b91506138c58261385e565b604082019050919050565b600060208201905081810360008301526138e9816138ad565b9050919050565b7f4f6e6c792074686520437573746f6d65722063616e20636f6e6669726d20736560008201527f727669636520636f6d706c657465640000000000000000000000000000000000602082015250565b600061394c602f8361316b565b9150613957826138f0565b604082019050919050565b6000602082019050818103600083015261397b8161393f565b9050919050565b7f596f7520617265206e6f7420612076656e646f72000000000000000000000000600082015250565b60006139b860148361316b565b91506139c382613982565b602082019050919050565b600060208201905081810360008301526139e7816139ab565b9050919050565b7f4e487b7100000000000000000000000000000000000000000000000000000000600052602260045260246000fd5b60006002820490506001821680613a3557607f821691505b60208210811415613a4957613a486139ee565b5b50919050565b7f56656e646f7220696e64657820646f6573206e6f742065786973740000000000600082015250565b6000613a85601b8361316b565b9150613a9082613a4f565b602082019050919050565b60006020820190508181036000830152613ab481613a78565b9050919050565b7f596f752063616e27742062757920796f7572206f776e2070726f647563740000600082015250565b6000613af1601e8361316b565b9150613afc82613abb565b602082019050919050565b60006020820190508181036000830152613b2081613ae4565b9050919050565b7f57726f6e6720616d6f756e7420656e7465726564000000000000000000000000600082015250565b6000613b5d60148361316b565b9150613b6882613b27565b602082019050919050565b60006020820190508181036000830152613b8c81613b50565b9050919050565b7f57726f6e672056656e646f72206164647265737320656e746572656400000000600082015250565b6000613bc9601c8361316b565b9150613bd482613b93565b602082019050919050565b60006020820190508181036000830152613bf881613bbc565b9050919050565b7f5265656e7472616e637920646574656374656421000000000000000000000000600082015250565b6000613c3560148361316b565b9150613c4082613bff565b602082019050919050565b60006020820190508181036000830152613c6481613c28565b9050919050565b6000613c76826133ef565b9150613c81836133ef565b9250827f800000000000000000000000000000000000000000000000000000000000000001821260008412151615613cbc57613cbb613542565b5b827f7fffffffffffffffffffffffffffffffffffffffffffffffffffffffffffffff018213600084121615613cf457613cf3613542565b5b828203905092915050565b7f596f752063616e206e6f742063616e63656c206e6f7700000000000000000000600082015250565b6000613d3560168361316b565b9150613d4082613cff565b602082019050919050565b60006020820190508181036000830152613d6481613d28565b9050919050565b7f43616e27742063616e63656c2061742074686973207374616765000000000000600082015250565b6000613da1601a8361316b565b9150613dac82613d6b565b602082019050919050565b60006020820190508181036000830152613dd081613d94565b9050919050565b7f596f752063616e206e6f742063616e63656c0000000000000000000000000000600082015250565b6000613e0d60128361316b565b9150613e1882613dd7565b602082019050919050565b60006020820190508181036000830152613e3c81613e00565b9050919050565b7f4f6e6c792074686520637573746f6d65722063616e2063616e63656c2074686560008201527f2073657276696365000000000000000000000000000000000000000000000000602082015250565b6000613e9f60288361316b565b9150613eaa82613e43565b604082019050919050565b60006020820190508181036000830152613ece81613e92565b9050919050565b7f526520656e7472616e742063616c6c0000000000000000000000000000000000600082015250565b6000613f0b600f8361316b565b9150613f1682613ed5565b602082019050919050565b60006020820190508181036000830152613f3a81613efe565b905091905056fea26469706673582212202560d7f74b0cac43d148cc9dde4af8341247b86f441c6de2e62eec509571e97864736f6c63430008090033",
  "linkReferences": {},
  "deployedLinkReferences": {}
}